:020000041000EA
:1000000000B5324B212058609868022188439860DF
:10001000D860186158612E4B002199600221596106
:100020000121F02299502B49196001219960352056
:1000300000F044F80222904214D00621196600F024
:1000400034F8196E01211966002018661A6600F04E
:100050002CF8196E196E196E052000F02FF8012189
:100060000842F9D1002199601B49196000215960AB
:100070001A491B48016001219960EB211966A021F2
:10008000196600F012F800219960164914480160C1
:100090000121996001BC002800D000471248134993
:1000A000086003C880F30888084703B5996A0420EC
:1000B0000142FBD001200142F8D103BD02B5186610
:1000C0001866FFF7F2FF186E186E02BD00000240BE
:1000D000000000180000070000035F00212200005C
:1000E000F4000018222000A00001001008ED00E03C
:1000F00000000000000000000000000074B24E7A12
:1001000000200420F7010010C3010010C5010010F9
:10011000C1010010C1010010C1010010C101001097
:10012000C1010010C1010010C1010010C701001081
:10013000C1010010C1010010C9010010CB01001065
:10014000CD010010CD010010CD010010CD01001037
:10015000CD010010CD010010CD010010CD01001027
:10016000CD010010CD010010CD010010CD01001017
:10017000CD010010CD010010CD010010CD01001007
:10018000CD010010CD010010CD010010CD010010F7
:10019000CD010010CD010010CD010010CD010010E7
:1001A000CD010010CD010010CD010010CD010010D7
:1001B000CD010010CD010010CD010010CD010010C7
:1001C00000BE00BE00BE00BE00BE00BEEFF3058054
:1001D000103800BEF2EB88717C7E00109C7E00100F
:1001E0003802001090A31AE71E481F49086006C88D
:1001F00081F3088810471D480068002801D019487D
:10020000F3E70DA40ECC002902D000F012F8F9E7B4
:100210001749184A002000E001C19142FCD116495B
:100220008847164988471649884700BEFDE701C937
:1002300001C29A42FBD370479C7E0010C000002090
:1002400010190020EC96001000000420000004208B
:10025000EC960010001004200010042000000000A4
:10026000704700000000000008ED00E0000000D032
:1002700010190020E0290020693F0010B103001090
:10028000613F0010F8B5C0460448054B10B58342E5
:1002900003D0044B002B00D0984710BD101900204C
:1002A000101900200000000006480749091A8B10A9
:1002B000C90FC91810B5491003D0044B002B00D04A
:1002C000984710BD101900201019002000000000F0
:1002D00010B5074C2378002B09D1FFF7D5FF054B4C
:1002E000002B02D0044800E000BF0123237010BDA2
:1002F000981B00200000000074750010054B10B51D
:10030000002B03D00449054800E000BFFFF7CCFFF5
:1003100010BDC046000000009C1B0020747500103A
:10032000064B1A68002A04D001201A68013A1A60A4
:100330007047034B00201A70FAE7C046BC29002022
:10034000DD290020052819D0062800D07047D023C9
:100350008020802180221B068001090152019861C2
:1003600099619A61986159619A610F4B1B68002BE2
:10037000ECD00E4A136801331360E7E7D0238020E6
:10038000802180221B065201800109019861996138
:100390009A61986199615A610922034B1A6000229F
:1003A000024B1A60D2E7C046BC290020C0290020B9
:1003B000F0B5DE4657464E464546E0B55F4C604BCD
:1003C000A54469461A88D0240A829B7824068B7437
:1003D00003F0DAFE052000F0C1FB202300220121FA
:1003E000A362052000F00CFB062000F0B7FB4023C1
:1003F00000220121A362062000F002FB0D2000F084
:10040000ADFB80239B010B20636200F0A7FB8023E0
:100410001B0163620C20A36100F0A0FB80235B0141
:1004200063624848A36103F0FFFE474B01220421A9
:10043000052000F02BFB01220421062000F0FAFA2F
:100440004249434806F092FB03210E2000F0BEFA19
:1004500003210F2000F0BAFA002201210E2000F043
:10046000CFFA002201210F2000F0CAFA00F090F824
:10047000384B06A806930023079300F07DF88022EE
:100480000021D20012A802F061FA06A912A800F019
:10049000ABF8314B08AE9946304B37009B46304B9A
:1004A0009846304B9A464B461B68092B31D00322A5
:1004B000002104A802F04AFA5B4641461A6804A8E3
:1004C00003F006FD0322002105A802F03FFA4B4687
:1004D00041461A6805A803F0FBFC5346336005ABA0
:1004E0007360214B3D00B36004ABF36000243E0019
:1004F00022B2052108CD12A8083400F0C3F8202C40
:10050000F6D106A912A800F06FF84B461B68092B1C
:10051000CDD1164B1B78DCB2002BC8D101F018F9F5
:100520000CAB0293124B134A00930194002301F089
:100530007FFA01220D4B1A70B9E7C046B4FBFFFFEA
:10054000B07500107875001045030010801A060081
:10055000C0100020007F0007BC290020C029002017
:100560008C75001094750010A4750010DD29002012
:100570002103001040420F0043780178C278591AD5
:1005800083780131D31A01334B4343607047C0462F
:10059000F0B54746CE4680B58BB003AC2200104B79
:1005A000802723CB23C223CB23C21B8800261380A2
:1005B00026236B4499460B4B02AD984623782F7047
:1005C0006B702A0002233C2140460096013406F05D
:1005D000F7FAA145F2D10BB0C0BCB946B046F0BDA8
:1005E000B4750010C0100020F0B557464E46454681
:1005F000DE462123E0B587B004AC23700B78834638
:1006000063704B788A46A3702223E3708B780027AF
:100610002371CB781A4E637116236B44994680235D
:10062000984603AD424623782A706B702A00022355
:100630003C2130000097013406F0C2FAA145F1D107
:1006400053465B685D1C2800984602F061F9402320
:100650000400424659460370013002F07DF92B0038
:1006600022003C213000009706F0AAFA200002F098
:1006700061F907B0F0BCBB46B246A946A046F0BD42
:10068000C0100020F0B5DE4657464E464546E0B560
:1006900083B078294DDC382A4BDC1C78002C48D0FC
:1006A0000725D6173540AA18D210D2010192294A3F
:1006B00093462AE0303C092C42D8FF242240153AC8
:1006C0005C46D200A45C5A44A24654781779A146ED
:1006D00094785679A046D4789579A446D279009238
:1006E0005446019A8A1884544C46821854704446E1
:1006F00094706446D470009C177156719571D471D2
:100700001C78083109B2002C13D001337829F7DCAA
:10071000114A155D032215402200022D01D1203A15
:10072000D4B22500413D192DC4D8FF242240403ABF
:10073000C6E703B0F0BCBB46B246A946A046F0BD32
:1007400000220025002600279446904691469246B6
:100750000092C5E7D0750010797D0010D0231B06EC
:100760001B68F0B59A00454690464146934ADE46DE
:100770005258574693465A1E934130224E465B428A
:100780001A4013008E4AE0B5944683B06344019347
:100790008C4B08269A463500083DEA08130001995B
:1007A00008339B005C58002C27D05B46002B2ED0D2
:1007B00001230F27994639002140274217D052467E
:1007C00040462B001258203BEA40DB1713404A46B4
:1007D00013420CD1072208002A40920090400200E8
:1007E000EB0879483C339B001A502800D84724096D
:1007F0000135002C01D0B542DDD30836282ECAD1F0
:1008000003B0F0BCBB46B246A946A046F0BD0F23DC
:1008100018002040234209D041466A4B5958330002
:10082000E940283BDB0F0B4200D197E02309F11F81
:10083000002BE2D00F22100018401A4211D042467D
:10084000604B9A583300CA40273BDB0F134208D154
:100850000722CB081140890088405B4A3C339B004B
:100860009850230AB11F002BC7D00F221000184048
:100870001A4211D04246534B9A583300CA40263B85
:10088000DB0F134208D10722CB08114089008840B2
:100890004D4A3C339B009850230B711F002BACD06A
:1008A0000F22100018401A4245D1230C311F002B93
:1008B000A3D00F22100018401A4258D1230DF11E68
:1008C000002B9AD00F22100018401A4262D1230E3A
:1008D000B11E002B91D00F22100018401A4211D0E7
:1008E0004246384B9A583300CA40223BDB0F134232
:1008F00008D10722CB08114089008840324A3C3396
:100900009B009850240F711E002C00D175E75346B0
:1009100042469A583300CA40213BDB0F134200D0B5
:100920006BE70722CB08114089008C40264A3C33F4
:100930009B009C5061E74246224B9A583300CA40C4
:10094000253BDB0F1342B0D10722CB0811408900B1
:1009500088401D4A3C339B009850A6E707231D4062
:10096000AD00A840184B3C329200D0505EE74246A2
:10097000144B9A583300CA40243BDB0F13429DD1DD
:100980000722CB081140890088400F4A3C339B0066
:10099000985093E742460B4B9A583300CA40233B8A
:1009A000DB0F134293D10722CB0811408900884006
:1009B000054A3C339B00985089E7C046002400203C
:1009C000004101409C2800200040014010B5402417
:1009D000084A83009A181268C0005440C02222407E
:1009E000054CA44663441A60044B9C466044416035
:1009F00010BDC04604C0014004D001400040014089
:100A00000B4B80009C46604400290ED1002304312A
:100A1000002A00D1190080220368520159409446EF
:100A20000C2360440B40036070470C210823EFE760
:100A300004C00140D0231B061B6830B50500581EBA
:100A4000834110485C4284460720302328402340DD
:100A50008000EC08814020000B4D3C306344800056
:100A6000A40041511B19002A05D08022920194460E
:100A70006344196030BDC0229201944663441960FA
:100A8000F8E7C0460041014000400140F8B5454646
:100A90009846D0231B06DE461C689B462B4B5746C8
:100AA0009A46A3004E469946E0B5534616004A467C
:100AB0009B5807000D00002B34D04346002B3FD03D
:100AC00053464A4641469950D0231B061C680720CE
:100AD0001F4A631E9C419446FA0811003023384097
:100AE0008000854064421B4823403C3163448900B8
:100AF00092000D509B18002E0ED080229201944639
:100B0000634401210D201D6000F012F9F0BCBB46CA
:100B1000B246A946A046F8BDC0229201944663445D
:100B20001D60F3E74346002BD1D0534641460D20CC
:100B300099500022084900F061F95B461C68C6E73D
:100B40000D20054900F04EFABAE7C0460024002007
:100B500000410140004001405D0700100123D02208
:100B600083404021120693629361094A83009A18D8
:100B70001268C0005140C0220A4006498C466344B6
:100B80001A60054B9C460523604443607047C0468D
:100B900004C0014004D00140004001408023DB0537
:100BA0001868000F7047C0460FB400B5084883B0FE
:100BB00003F03AFB049B002B07D005A91800019114
:100BC00003F09AF9034803F02FFB012003F0ACF97E
:100BD000F87600100877001070B5EFF3108C72B63D
:100BE0000D4D2B68002BFCD0BFF35F8F0724CB0883
:100BF000C618C05C01230C40A3401C000440034203
:100C000007D103433370BFF35F8F2C608CF31088E0
:100C100070BD1000FFF7C8FF2C0100D0F8B54746A3
:100C2000CE46884680B5EFF3108C72B6214D2C6805
:100C3000002CFCD0BFF35F8F9A422CD8D408072732
:100C4000055D061901241740BC402C421FD0072126
:100C50000127894609E0D408055D06194C4639008C
:100C60001440A1400C00294211D001329342F2D22B
:100C700001204042BFF35F8F00220E4B1A608CF3BD
:100C8000108800280FDBC0BCB946B046F8BD2C4325
:100C900010003470EEE7BFF35F8F00232B608CF3FE
:100CA0001088012040424346002BECD00898FFF703
:100CB0007BFFC0462C0100D0044A1078431CDBB2F5
:100CC000172B00D9102313707047C046F80F00206F
:100CD00000B5054B83B00100009318221F23034881
:100CE000FFF79CFF03B000BD0C770010102400201C
:100CF0000021044B044ABFF35F8F02C39342FAD131
:100D00007047C046000100D0800100D0054B064A64
:100D10001360064A136053609360D360136153619C
:100D2000936170478080808000E400E004E400E08C
:100D30001F2318401E3B8340002905D0C021044AD0
:100D40004900535013607047802201498B50FAE7E5
:100D500000E100E001228240034B1B6813405A1E51
:100D60009341D8B27047C04600E100E001238340C0
:100D7000014A13607047C04600E200E0084B1030A3
:100D80009B688000C358002B07D0064A00209B1A9E
:100D90002F229A424041C0B270470020FCE7C04673
:100DA00000ED00E0FC0F002070B50D00EFF31086A1
:100DB00072B60F4A1368002BFCD0BFF35F8F0D4B48
:100DC00010309B6884001B590B4A934203D09D420C
:100DD00001D001F0CDF8074B9B681D51BFF35F8F29
:100DE000BFF35F8F0022024B1A6086F3108870BD3C
:100DF000240100D000ED00E0CD010010F0B5574611
:100E00004E46DE464546E0B585B006000291170025
:100E1000EFF3108B72B6674A1368002BFCD0BFF358
:100E20005F8F0025644B5D579A46002D00DAA4E0E1
:100E30006B00624C03935B199B009846A146C1442A
:100E40004B4652469B79103613705D4BB2009B683F
:100E5000019299580B1B2F2B34D95A4B994200D031
:100E6000A4E0039B584A9C46584B6544AD0063532D
:100E7000434602336519E418554B0121043B1B1B03
:100E80001B055B0D13436B80524BEF71AB80FF234F
:100E9000AB71029BAB604B460B431900484B019A68
:100EA0009B689950BFF35F8FBFF35F8F0022414B68
:100EB0001A608BF3108805B0F0BCBB46B246A94659
:100EC000A046F0BD01200A008243D379BB422FD84F
:100ED00045464E46130040491B1B5B415943090DD3
:100EE0003A4B63533A4B02356519043B5B1B1B05B8
:100EF000354D5B0D2B4373800426B446E0444444D7
:100F0000131F1B1B4C46A17102991B05A16049468A
:100F10005B0D2B43A380314BE77101431360BDE7A9
:100F20005800C01880002018C679BE422BD9020094
:100F30000623D356002BF3DA101D8246284880463C
:100F400004267642B446E14450464E46361A3005F1
:100F5000400D824656461C48957106439680039A7A
:100F6000944665441D4AAD00641922604246A3714F
:100F7000029BA280E771A36090E700F0F9FF0025D3
:100F800053465D5754E7101D824690884005001572
:100F900084464046D444664604302018301AE02681
:100FA0000005400D360230438046C9E700F0E0FFFF
:100FB00057E7C046240100D0D9290020FC0F0020AB
:100FC00000ED00E0CD01001000E0FFFF00A1FFFFF9
:100FD0002C10002001BDFFFFAAAA00000148804795
:100FE00001BD0000F0B5DE4657464E464546E0B529
:100FF0000C0083B0EFF3108972B65F4A1368002BC0
:10100000FCD0BFF35F8F5D4B9A68030010339F00E5
:10101000D5595B4A904695423DD0A5424ED0594E97
:10102000AA1B2F2A37D8584A9346126894460122A1
:1010300061469246824011401F2210405246824033
:10104000924601918022514658468150BFF35F8FEE
:10105000EFF305829346002A32D101232A009A43F6
:101060009068844208D17CE04B005B189B00F31829
:10107000986884422ED01A00062151560029F3DACE
:1010800084424DD0019B002B1FD0C02251463E4BC5
:10109000520099501960394B9B68DD51BFF35F8F47
:1010A000BFF35F8F0022344B1A6089F3108803B0BE
:1010B000F0BCBB46B246A946A046F0BD1500EAE723
:1010C0009342CAD000F054FFC7E7802351462E4A0E
:1010D000D150E0E706215956002922DB4A0050187A
:1010E000800034188046A0689860E079D8710620A6
:1010F00020569871002825DBA488F01A6405241571
:1011000044440019E0240005400D24022043988047
:1011100052181E4B9200B6181A781970B271B1E7C6
:101120001300594600290FD1FF3191711849918060
:1011300016490A789A71174A9B1B5B415A43120D54
:101140000A709FE71448E2E7144A1549D21A083A90
:101150005002400D01439980124952080A43DA8037
:1011600090E70621515613000029B7DA5A46002AA3
:10117000EAD14546DCE7C046240100D000ED00E09E
:10118000CD010010FC0F002000E100E0D929002073
:1011900001BDFFFFAAAA000001BD0000361000201B
:1011A00000F0FFFF00F8FFFF70B501240443EFF3E8
:1011B0000581EFF3108C72B6214A1368002BFCD026
:1011C000BFF35F8F1F4B05001F4AED1A6D416A4345
:1011D000120D1E4D8900AE6852B27658A6421CD040
:1011E0000621595691421CD012215956914222D0C3
:1011F0001E215956914220D02A215956032491424A
:1012000010D0134B19781A708171BFF35F8F0022D1
:101210000B4B1A608CF3108870BDAB680D4C5C50A2
:10122000EFE700246100091989005B18FF2199711B
:1012300009499980E5E70124F4E70224F2E7C04672
:10124000240100D0FC0F0020AAAA000000ED00E05D
:10125000D9290020CD01001001BDFFFF00B5074BCB
:1012600083B001000093002205230548FFF7D6FC58
:10127000002801DB1F23181A03B000BD28770010D7
:10128000DE290020024B9C466144890001607047C2
:1012900040000034F8B5134D134E2C00FF27B54223
:1012A0001ED22368002B0FD0FFF706FD0100280097
:1012B000FFF7E8FFA780BFF35F8F0834B4420FD277
:1012C00023682500002BEFD1FFF7F6FC0100280072
:1012D000FFF7D8FF2771BFF35F8F0834B442EFD315
:1012E000F8BDC046081900201019002010B50400F0
:1012F000FFF7E2FC01002000FFF7C4FFFF2323718A
:10130000BFF35F8F10BDC04610B504000120FFF78A
:10131000DFFC044B9C46604480002060BFF35F8F7D
:1013200010BDC04640000034034B9C466144890018
:101330000160BFF35F8F7047400000340A4B1968AB
:10134000EFF3108072B60A68002AFCD0BFF35F8FFB
:101350001B68BFF35F8F00221A6080F3108840BFC4
:10136000002000217047C046B0290020F0B5DE46BD
:1013700057464E464546E0B585B0EFF30582032358
:1013800013409A0011000392B64A52589046012227
:101390009A40B54B91461A6031E043469B881BB298
:1013A000002B00DB9DE043469B79002B00D0EFE053
:1013B000434608241C5F002C00DA17E142465269BC
:1013C000630094461B19DB0063449C68DD68631C62
:1013D00000D113E1A54B03999C4661449A6A0B69BD
:1013E000A01A9B1A984200D20C61A04800F0BAFBE8
:1013F000241A8D41002D00DDF8E000D12EE14B468E
:101400009A484363434608229B5E9A46002BC4DBFE
:10141000424652695B0093465344DB009B445B4663
:101420009E68DF6800F09EFB801BB9410029B4DB99
:10143000002F00DAEDE05B468D4A1B69934200D134
:10144000E0E041465A460820085E528800041043F6
:101450005A465169984704000D0023002B4300D1E0
:10146000D7E0002D00DBF0E0361BAF4134003D003B
:101470005B469C60DD600021595E00298DDB4346A0
:101480005B6922009C462B0048004018C000604465
:101490008668C768921BBB41002B00DA7DE7434694
:1014A000664602000094019519810CE07B00DB196F
:1014B000DB00F318009801999C68DD68001BA941C6
:1014C000002904DB1A000023D75E002FEEDA5B460A
:1014D0001F805346138043469B881BB2002B00DAC3
:1014E00061E743461A69EFF3108172B61368002B67
:1014F000FCD0BFF35F8F43469B8842461BB29A469F
:1015000001235B4293801369BFF35F8F00221A604F
:1015100081F310885346002B00DA44E743465B69A9
:101520009C46082343449B4653465F00434657442A
:10153000FF0008229A5E67445E46BC68FD68002A88
:1015400019DB3B000094019567469C4604E01E00B1
:101550000023F25E002A0BDB0098019953009B18D0
:10156000DB00FB189C68DD68001BA9410029EEDA4E
:101570006346BC461F005346338000217B5E3A80A1
:101580009A46002BD0DA43469B79002B00D10FE717
:10159000002342469371434646460821595E083669
:1015A0004B1C23D047468C46556902E006004B1C75
:1015B00017D04B005B18DB00E8180A00E95E43888F
:1015C0001BB2002BF2DA01235B42DC178360C4609C
:1015D0006245ECD031803B89944603803A814B1CB4
:1015E000E7D16446B846002C00DBE7E640BF05B013
:1015F000F0BCBB46B246A946A046F0BD6B1C00D06D
:10160000E8E6F2E65B465C6920002369984700281B
:1016100021D15B4642461B8813811269EFF3108388
:1016200072B611680029FCD0BFF35F8F424659465D
:1016300052880A804246514651801269BFF35F8F3B
:101640000021116083F31088A7E6084800F08AFAA9
:1016500024184D410CE765682468FEE6002C00D193
:10166000CDE6C3E78C2800203C70054000400540D3
:101670006D13001070B52E4C2569002D04D00A2181
:101680002C48FFF7FFFD70BD2B4E0321300000F00A
:101690005FFAE660FFF710FB284B03229C46D0233D
:1016A00022701B061B6801216370254B6044A360F8
:1016B0000F23800020610220638063694942A1807A
:1016C00019800231198647311D83585218315A52F8
:1016D00075325C3999521832013199521832013100
:1016E0009952183201319952083518329D520231FF
:1016F00018329952183201319952183201319952E7
:10170000183201319952183201319952183201318F
:1017100099520C4B0C49DC6001303562FFF744FBF9
:1017200001210320FFF704FB084B1D60A7E7C0461B
:1017300044100020B0290020004005404000003443
:10174000FFFF10008C2800206D130010386005404A
:101750000048704744100020F8B51F0008AB1B7804
:1017600004001600002B07D100F004FA32003B0001
:10177000121A8B41002B4CDB2269EFF3108072B6FA
:101780001368002BFCD0BFF35F8F62690223E15E18
:1017900094464B005B18DB006344002901DB1A8888
:1017A00062802269BFF35F8F0025156080F3108887
:1017B000002930DB069A9E60DF601A61079A5A6141
:1017C0005A8801325204520C161C002A1FD0B0B2A3
:1017D0000A045E8010432669EFF3108572B6326802
:1017E000002AFCD0BFF35F8FA2881A80A1802369F2
:1017F000BFF35F8F00221A6085F3108807492378B2
:101800008C4601329A40E36863441A60F8BD0126B1
:10181000DDE70020FAE701204042F7E73C20000026
:1018200070B5C646010000B50469EFF3108C72B6BE
:1018300020680028FCD0BFF35F8F02200D5E48694E
:101840006C0080466419E4004444002D01DB2088CC
:1018500048800869BFF35F8F002606608CF310880C
:10186000002D30DBE36063880598013320615B0461
:1018700006985B0CA26060611A1C002B21D090B20C
:101880002B04628018430A69EFF3108672B613685E
:10189000002BFCD0BFF35F8F8B8823808D800B697A
:1018A000BFF35F8F00221A6086F310880B78013235
:1018B0009A40CB6805498C4663441A6040BCB046E8
:1018C00070BD0122DBE701204042F7E73C20000029
:1018D00010B543890A14934233DD53009B184269C3
:1018E000DB00944604696344EFF3108C72B62268FF
:1018F000002AFCD0BFF35F8F5A88090494B2090C08
:101900008A4208D00369BFF35F8F00221A608CF30C
:101910001088002010BD8022120214435C80012335
:1019200002698371BFF35F8F002111608CF310880F
:10193000054902788C469340C268012062441360D6
:10194000E8E70020E6E7C0463C200000407870470A
:10195000F0B5CE46474680B504000D0083B0EFF3E6
:101960000587002F3BD12F4E81463378F268043330
:101970009B00916A9B58421A5B1A9A420ED320BF71
:10198000294A0020536AAB4203D3926A0130914541
:101990003CD803B0C0BCB946B046F0BD00F0EAF890
:1019A00022002B00121A8B41002B26DB1F4B22003A
:1019B000009330002B000197FFF732FF011E1CDD62
:1019C000194BA8465A6A954225D920BF3000FFF727
:1019D0007FFF154A0020536A9845DAD8D5E7124AA6
:1019E0000020536A8B42D4D3926A0130A242D0D2F3
:1019F000581A421E9041C0B2CBE70B4A0020536AEE
:101A0000AB42C6D3926A01209145C2D9E81A421E60
:101A10009041C0B2BDE79B6A9C42D7D99542D5D1CF
:101A2000D3E7C04644100020004005403D1300109D
:101A3000F0B5CE464746110080B583B004009C4601
:101A40000C9D194300D16DE06146DB1701930093B3
:101A500053401E00019B4B401F0000980199361A0D
:101A60008F4163460A996B600B9BAC6029612A60C9
:101A70006B6100F07FF836184F41002F00DA59E013
:101A80002269EFF3108972B61368002BFCD0BFF304
:101A90005F8F62690223E15E94464B005B18DB00B6
:101AA0006344002901DB1A88628022699046BFF3F3
:101AB0005F8F00224046026089F3108800293DDBD9
:101AC000204A9E60DF601A615A885D6101325204CB
:101AD000520C101C002A2BD082B2588008040243FA
:101AE0002669EFF3108772B630680028FCD0BFF388
:101AF0005F8FA0881880A1802369BFF35F8F0021CA
:101B0000196087F310881048237884460131994082
:101B10000120E36863441960EA6003B0C0BCB946C1
:101B2000B046F0BD00230126002701229C4698E71D
:101B30000120D1E70126054F7642A1E701220020CE
:101B40005242E9E76D1300103C200000FFFFFF7FC9
:101B500010B5024A0248FFF73FF810BD4477001065
:101B6000142400200300416A0A00986A596A8A42D4
:101B7000FAD17047034B596A0A00986A596A914230
:101B8000FAD1704700400540F8B5DE464E4657464C
:101B90004546E0B58B4605000A991800160000F08E
:101BA000EDFA0A9B6C001F02324B64199C46A4009C
:101BB0006444636881469F4200D967602B1FDBB293
:101BC0009846012B30D9C02380229B01E3181201D3
:101BD0001A60294BAD0059599A4600291BD1226839
:101BE00076017240E0268023164042465B01E318EE
:101BF0001E60012A30D9802380229B01E318120144
:101C00001A6053464A4667605A51F0BCBB46B2461A
:101C1000A946A046F8BD586900F0B0FA431C580028
:101C2000C0180338FDD2DAE75B46012BCBD1C023C5
:101C300003229B01E3181A60023AA3681A42FCD0FF
:101C4000E0232268760156401E4080230A4A5B0149
:101C50009246E3181E60AD005A46216851400322A7
:101C60000A401A6001225B469A40A3681A42FCD0DF
:101C7000C1E7C0460080004018240020F0B5464669
:101C80004F46D646C0B51F00344B44009C4624182E
:101C9000A4006444636888461600FF2B02D88023A2
:101CA0005B006360031FDBB29A46012B30D9C0236F
:101CB00080229B01E31812011A60294B85005959B3
:101CC000994600291BD1226876017240E0268023C4
:101CD000164052465B01E3181E60012A30D980236A
:101CE00080229B01E31812011A6080235B0063606D
:101CF0004B465F51E0BCBA46B146A846F0BD5869B4
:101D000000F03CFA431C5800C0180338FDD2DAE753
:101D10004346012BCBD1C02303229B01E3181A6059
:101D2000023AA3681A42FCD0E023226876015640AA
:101D30001E4080230A4A5B019146E3181E6085001D
:101D400042462168514003220A401A60012342465C
:101D50009340A2681342FCD0C1E7C0460080004017
:101D600018240020014B8000C05870471824002020
:101D7000F8B5040020481D0017000E0000F0FEF921
:101D80000100380000F0FAF9069B29041B031943EF
:101D90002368002B1EDB194B194DE21853425A41A0
:101DA00080235B019C461203164B62441A60164B5B
:101DB0001A6017002B689F43FBD1144B2660E21872
:101DC0002123A06013602368002BFCDA0823E16064
:101DD0001360F8BD3F2322681340B342DBD1A368F0
:101DE0001B051B0D8342D6D1EE22E368D2021340BD
:101DF0008B42D0D1EDE7C046001BB7000040FDBFCD
:101E000008C0004000E0004000F000400430000046
:101E100010B5140080221B4BD2051A6000281AD07E
:101E20000123194A1843194BDA61194A42401A62D0
:101E3000596298628022134BD2051A601549164ADE
:101E40001160E022D2041A60002C07D18022134BCB
:101E500012061A6010BD0D4BD861EBE763011B1B26
:101E60009A008023121912015B049A4200D30C4A93
:101E70000C4B1A60054B5A608022084BD2051A6041
:101E8000E8E7C04600B00540D3C007B00080054079
:101E90002D3FF84FFCFF01000820014000A0054045
:101EA000FFFFFF007C2800208023024A9B000B4399
:101EB000D362704700800540142310B501001888D4
:101EC00004331B88984710BD162310B501001888ED
:101ED00002331B88984710BDF8B54746CE4680B5FB
:101EE0000F1E19D01423994604330400002501263F
:101EF00098464B461888434621681B88984701C47A
:101F0000431E9841013540420640AF42F1D13000B6
:101F1000C0BCB946B046F8BD0126F8E7142370B539
:101F20000400188804331B880D00054998470300F6
:101F30000020002C01DB0130A04029009847C0465A
:101F400055420000AA23064A1B0113602F230549AE
:101F5000D360054B19605368002BFCDA7047C0460C
:101F60000040024000B0FA00006002407047C046E6
:101F700010B50148FEF718FE6877001070B5074DE0
:101F8000074EB54209D20024013E761BB60808CDA3
:101F9000984723000134B342F9D170BD3075001069
:101FA0006C750010054B064A06491A60064A074B35
:101FB0001A6010000B689843FBD1704700E00040A6
:101FC000BFCDFBFE08C00040FE7F3C0000F000409B
:101FD000044BDB6C002B03D18022034BD2021A602E
:101FE0007047C046000011504C201150044A054B68
:101FF0001A60054A1368DB018033FBD17047C04685
:10200000FFFFFF0100F0004008C000404022034BEA
:102010009A675A671A67DA667047C04600F001404F
:1020200010B5FEF765FE10BD70B5044D044C2800D8
:10203000C022A16800F090FCA56070BD00000020E7
:1020400000ED00E0002310B5294C82B0A367FFF734
:1020500079FF0122274B1A60636C012BFCD103220C
:10206000254B1A60224A936B012BFCD1013300935C
:102070000121224A22480433FFF77AFE0523012179
:102080000093204A2048FFF773FE0022022104201B
:102090001E4BFFF7F3FD0022012105201C4BFFF72B
:1020A000EDFD0022002107201A4BFFF7E7FD00227B
:1020B00000210820174BFFF7E1FD8023DB00009390
:1020C000002200210920134BFFF75EFD0022104B78
:1020D00000210620FFF7D2FD0420FFF743FE0E4942
:1020E00000F04CF801000020FFF7DEFE02B010BD4A
:1020F000008000403CB0004030B00040002F6859E4
:1021000000800240008C864700C00240001BB700E0
:1021100040597307006CDC0240420F000148042163
:10212000014B184760100020D91E0010124A936F0F
:102130009B0815D29066D166002905D0FFE7FFE71E
:10214000FFE7516F106F704704B580210906C21771
:102150005140002800D0C84305F0A2F9002104BD79
:10216000F0B5146E556E576F166FFFF7E3FF1466E8
:10217000556657671667F0BD000000D0114A936F8F
:102180009B0813D210665166002905D0FFE7FFE7D0
:10219000FFE7516F106F704704B5002801D0002091
:1021A000C04305F07DF9002104BDC046F0B5146EB2
:1021B000556E576F166FFFF7E5FF14665566576744
:1021C0001667F0BD000000D094464A4A926F92080C
:1021D000624601D228E0C046F0B5464E346E756EB8
:1021E000776F366F00F020F89446424A14665566C1
:1021F000576716676246F0BD94463E4A926F920852
:10220000624601D254E0C046F0B53A4E346E756E67
:10221000776F366F00F04CF89446364A1466556670
:10222000576716676246F0BD002B24DB11D00029EA
:102230003EDA00B5C943404200D1013100F038F820
:10224000C943404200D10131DB43524200D1013346
:1022500000BD002AEBD1002801D1002905D00020C3
:10226000C90FC90701D1C043410800B505F010F9F5
:102270000022002300BD00B500290ADBDB435242E7
:1022800000D1013300F014F8C943404200D10131BC
:1022900000BDC943404200D10131DB43524200D16D
:1022A000013300F005F8DB43524200D1013300BD99
:1022B000002923D1002B18D1002A0CD0BC460D4F89
:1022C00038667A6600210023FFE7FFE7FFE77A6FB1
:1022D000386F67467047002801D00748010000B5F5
:1022E00005F0D6F80022002300BD02000B000020FC
:1022F00000217047000000D0FFFFFFFF002B00D03F
:10230000BFE0130C28D1002AE7D080B4114F396602
:102310007A66FFE7FFE730B4040C7B6F396F1B046C
:1023200023433B667A66FFE7FFE7FFE7C04684B2D8
:102330007B6F3D6F1B0423433B667A66FFE7FFE735
:10234000C04600232C042D0C7A6F386F00196941A8
:10235000B0BC7047000000D0F0B594460025140EC4
:1023600001D112020835140F01D112010435940F66
:1023700001D192000235D40F01D152000135D40BA6
:102380000134254F7C66254C3C660E0C93B2FFE76A
:10239000FFE7FFE73C6F6643360C7703BE467343A7
:1023A000DF0B5B04C01AB941130C7343DB18C91A65
:1023B000CE086643360CB64493B273431F0F1B011D
:1023C000C01AB941130C73431F0B1B05C01AB94146
:1023D000860D8F023E436643360C092D24DB520ADC
:1023E0007243801A7703460A6643360C16235B1B3A
:1023F000DE40DF40BF1964466643821B70460435E9
:1024000006330100D940A840C01900D30131A242CF
:1024100006D20023F0BD0000000000D0FFFFFFFF48
:10242000121B0130F3D3F1E709277F1BFE406446FE
:10243000A2B27243801A00D20139220C7243130CEB
:102440001204821A99410B007046043513370100BB
:10245000F940A840801900D30131002B02D1A242DB
:102460000AD2F0BD013000D30131121BFAD2013B78
:10247000F8D1A24200D2F0BD013000D30131121BCD
:10248000F7E7F0B51C0C00D080E00CB400251C0A66
:1024900004D11B02160E3343120208351C0B04D163
:1024A0001B01160F3343120104359C0B04D19B0012
:1024B000960F334392000235DC0B02D192185B4138
:1024C00001351C00971864410134464F7C66464C28
:1024D0003C660E0CFFE7FFE7FFE7C0463C6F664334
:1024E000360C7703BE4697B27743C01B00D2013942
:1024F000C01B00D201399FB27743C91BC91B170CFF
:1025000077437E04FF0B801BB941CE086643360C2F
:102510000C2D33DBB644120B1F053A431B0B97B24D
:102520007743C01B00D201399FB27743C91B170CF8
:1025300077433E043F0C801BB941860D8F023E431A
:10254000664329277F1BFE400C3D7746AF40BF19ED
:1025500030BCA2B2ABB272437343801A9941220CD1
:102560007243130C1204801A994102000B000137C8
:10257000001BA941F9D2781E0021F0BD0C277F1B5A
:10258000FE4077467F0BAF40FF19E0E700245D1C5B
:1025900007D0144F7D663966FFE7FFE7FFE7FFE7E7
:1025A0003C6F95B29EB265436643401BB141150C2A
:1025B0001E0C6543664336042F0C3E432D04401B1E
:1025C000B141994204D202000B0020000021F0BD6D
:1025D00001D19042F7D3801A994101349942F2D344
:1025E000F6E70000000000D0FFFFFFFF4840414039
:1025F000484018B4134B5B68019308BD18B4114BE5
:102600001B68019308BD94460F4A926F920805D249
:10261000624618B40B4BDB68019308BD0A4AF0B55B
:10262000146E556E576F166F6246FFF7F2FF064A3B
:102630001466556657671667F0BD18B4014B9B6862
:10264000019308BD981A0020000000D0FFB550404B
:102650004240504059404B40594000E0FFB5154FB3
:102660004C00640D03D0BC4204D10C0314D80020EC
:10267000090D09055C00640D03D0BC4204D11C03A4
:102680000AD800221B0D1B0501264B4009D44B40E4
:1026900003D58B4200D18242FFBD9942FCD19042CA
:1026A000FFBD0B43DB1803431343F5D0C94349185F
:1026B000FFBD0000FF07000000B5FFF7CFFF80411E
:1026C00000BDC04600B5FFF7C9FF01D9002000BD1D
:1026D000012000BD00B5FFF7B9FF01D9002000BD02
:1026E000012000BD00B5FFF7B1FF804100BD012012
:1026F00040054A00121804D85A00121801D80020C8
:1027000070470120704700000021002805D1704764
:10271000C1174840401AFAD0C90713B5064B1B68C9
:1027200098470CBC441CA2401005120B0349091B1E
:1027300009051943114310BDAC2800201F040000F7
:1027400010B54C00620D8023D218DB00D21A5B0555
:102750007E2A10DD9E3A13DACC1709034908194383
:102760005242D140640001341532202A05DAD040AB
:102770000843604310BD002010BD0846604310BDF3
:10278000C80FC018013810BD18B4024B5B6A019322
:1027900008BD0000981A002010B50148FEF704FAA1
:1027A00074770010132370B51D78012D15D039DD15
:1027B0001E48FFF789FB06001D48FFF785FB1D4CEF
:1027C00080223100200000F0C7F8022D27D01A48DF
:1027D000FFF772FB194B186070BD194B154C236045
:1027E0006360A360E36023616361A361E3612362CB
:1027F0006362A362E36223636363A363E3632364AB
:102800006364A364E36423656365A365E36523668A
:102810006366A366E36623676367A367E367094BA1
:10282000A364D4E7034C074BA364D0E753440000F0
:1028300053460000981A00204C330000AC280020BA
:10284000992700104928001007B5604601880A0A38
:102850000230DF2AFAD1C9B2820804D30288408844
:102860000004104300E00068014A5050039007BD87
:10287000981A002051434343C9188C46110C83B267
:102880004B4310B4040C614392B280B25043624394
:102890001C041B0C001910BC59411304120CC01865
:1028A000514161447047000010B50148FEF77CF9C2
:1028B00034780010132310B510481C78FFF704FB80
:1028C0000100012C0AD003DD80220D4800F044F8FD
:1028D0000C48FFF7F1FA0C4B186010BD084C54225D
:1028E000200000F039F82300084A803321680029CD
:1028F00000D122600434A342F8D1E9E75346000036
:10290000B02800204C330000AC280020A92800107B
:1029100010B5040004F05EF9002804D0034B04193C
:102920009C4200D810BD0248FEF73EF9000004208A
:102930008C77001010B504F057F910BD0148042140
:10294000014B184770100020D91E0010014B1B6866
:102950001847000070100020014B5B68184700000A
:10296000701000209A4200D2885470477047C046C9
:10297000F8B557464E464546DE46E0B599460A9BB1
:1029800007009A460D9B8846934615000B9E9B07B1
:1029900010D10C9B9E420DD29D1B14000E005D4475
:1029A00022004B46013431002020B847A542F7D120
:1029B000B0460B9E002E27D0444675195346AA1BDD
:1029C000013E985D21004B46B847002EF6D123000A
:1029D0002C0098460D9B9B070FD55B46E51A0C9B78
:1029E000AB420AD94646984622004B463100202089
:1029F0000135B8470134A845F6D82000F0BCBB46E5
:102A0000B246A946A046F8BD2C00E3E7F0B54F4614
:102A10004646D646C0B584B098460EAB1B78129F8A
:102A2000994694460D9C109B119EBA0725D4002E02
:102A30004BD19C4200D3BFE001223A4092461F2C6A
:102A400000D9B8E00C9A551E302201E0202C03D0AA
:102A500001342A55A342F9D85246002A0DD0A64285
:102A60000BD9202C44D00C9A551E302201E0202C8A
:102A70003ED001342A55B442F9D1FA064DD57A0533
:102A80003FD4002C39D10F9B102B00D179E00F9B44
:102A9000022B00D18AE030230C9A012413704B469C
:102AA000002B3FD02D230C9A135501340C9B62460A
:102AB00000930397434602960194FFF759FF04B031
:102AC000E0BCBA46B146A846F0BD012215003D4023
:102AD000AA463A422FD04A46002A02D10C323A4244
:102AE00000D0013E9C42BAD21F2CABD9202E27D950
:102AF0002024FA06DAD57A0503D4A3422DD0A642C3
:102B00002BD00F9B102B32D0022B20D0202CCDD0DD
:102B100030220C9B1B191A700134202CC6D04B4656
:102B2000002BBFD17B070DD43B07BFD520230C9AC8
:102B300013550134BAE79C429FD21F2C00D881E77D
:102B400020249AE72B230C9A13550134AEE7202C4E
:102B5000ACD00C9B1B1901343AE0631E012C92D0BF
:102B60000F9A102A2AD0022A2FD01C00D0E7BB06C9
:102B70000ED4202C9AD00C9B1A1901347823137090
:102B8000C4E7BB060DD478230C9A01241370BFE769
:102B9000202C00D18AE758220C9B1B191A70013493
:102BA000B4E758230C9A01241370B1E70C9A6033F0
:102BB00001241370ACE7202400265EE7023CBA062D
:102BC000E9D40C9A12191C00D8E70C9A9246534487
:102BD00062221A709AE7C04610B5002800D110BDD5
:102BE00001F0D6FAFBE7C046F0B5DE4657464E4642
:102BF0004546E0B59BB09B46249B89469846259B5D
:102C00000B900C924046424619009A46FFF76FFD22
:102C1000002800D0D8E0012240465146774B52426E
:102C2000FFF760FD002800D0CEE00122404651466B
:102C3000734B5242FFF740FD002800D0C4E0002251
:102C4000002340465146FFF737FD002800D0B9E188
:102C5000424653460A9209938023289ADB001A4081
:102C60000E92289A1A4201D1062326930A9A099BAA
:102C70001600134300D0C7E0289B002500261B0543
:102C800000D49BE100230D93269A0D9B9A4200DC11
:102C90009FE1D01A431E26938023289ADB001A4313
:102CA0000023002728920D93279B0024BB4200D9C4
:102CB000DC1B0223289A1A400E92289A134203D052
:102CC0007B427B415B421C400D9B002B07D00A9846
:102CD00009992A003300FFF796FC0A900991002217
:102CE000002340465146FFF7E7FC002805D080202E
:102CF00000068446099961440991289A414B0B9D2D
:102D000013400493269B0A9A0293099B0394009212
:102D1000019349465B4628000C9A00F08BF90400A9
:102D2000002F62D0289B220098061F23C0179843CB
:102D3000631C984649465B466530A8470D9B0025B5
:102D4000DA179C18DB0F9A465440013F01E0202D12
:102D500013D00AAA94461F23200063440A21013598
:102D60005E19FFF70BFA3031317020000A21FFF7AE
:102D700005FA26000400092EE9D80523069300234E
:102D800004930A330393534605970B9F029312ABA8
:102D9000009342465B46494638000195FFF736FEF0
:102DA0000E9B0400002B20D00C9BC51A279BAB4226
:102DB0001BD91E0022005B46494620200135B8473A
:102DC0000134AE42F6D810E0289B42460493279B7C
:102DD00049460393269B0B98029353460092019316
:102DE0005B460C9A00F026F9040020001BB0F0BCF2
:102DF000BB46B246A946A046F0BDC046FFFFEF7FE6
:102E0000FFFFEFFFFFF7FFFF734B099F9C46780022
:102E1000400D6044FFF77CFC704A714BFFF70DFCDE
:102E2000704A714BFFF7EAFB3B03704A1B0B1A43D6
:102E300004000D00300011006D4B0022FFF7D9FB9C
:102E40006C4A6D4BFFF7F9FB02000B0020002900D4
:102E5000FFF7D4FBFFF774FC0D90FFF759FC674AAE
:102E6000674B04000D00FFF7E8FB0022654BFFF7FE
:102E7000C5FBFFF765FC644A0600644B200029008F
:102E8000FFF7DBFB040030000D000F96FFF740FC5E
:102E90005F4A604BFFF7D1FB02000B0020002900C6
:102EA000FFF7A7FB02000B0006000F00FFF7C5FBB2
:102EB000320004000D003B0030003900FFF79EFB9C
:102EC000002210901191544B20002900FFF79BFB2A
:102ED0000022524BFFF792FB02000B00200029005A
:102EE000FFF791FB00224E4BFFF788FB02000B001F
:102EF00020002900FFF787FB0D008021040032002D
:102F00003B000020C905FFF774FB02000B00200006
:102F10002900FFF773FB02000B0010981199FFF7CF
:102F200072FB0022314BFFF769FB3E4B0F9C9C4626
:102F3000644400222305FFF780FB05000E00020019
:102F40000B000A980999FFF7B7FB00280AD00D9BE0
:102F50002800013B31000D930022304BFFF753FB5B
:102F600005000E00C6270D992B0063318F42BF412B
:102F700028997F420437090500D495E6334300D1F0
:102F800082E6099C284A2100284B0A98FFF7A2FBF9
:102F9000002808D000222100254B0A98FFF78CFB5F
:102FA000002800D070E6269B002B00D17CE60E9B0B
:102FB0005A1E9341269AD31A269375E600230427B6
:102FC0000D9371E643460A9380231B0653440993ED
:102FD00042E6002326935FE601FCFFFFFB799F504A
:102FE0001344D33FB3C8608B288AC63F0000F03F2C
:102FF0000000F83F61436F63A787D23F71A379094F
:103000004F930A400000E03F1655B5BBB16B02403C
:10301000EF39FAFE422EE63F00002C40000024402B
:1030200000001840FF0300002D431CEBE2361A3F5E
:1030300080842E41F0B54E46DE4657464546E0B503
:1030400097B09946209E219F229B834698460791E0
:103050000C923B00320030003900FFF748FB00289B
:1030600000D0A9E1012230003900CA4B5242FFF7DB
:1030700023FB002800D0E1E0012230003900C64BDC
:103080005242FFF72FFB002800D0B7E000223000AB
:103090003900C24BFFF726FB002800D099E0002240
:1030A00030003900BE4BFFF707FB002800D090E04E
:1030B0000022002330003900FFF7FEFA002800D07C
:1030C000B1E000230D93249B5B0501D406239846B1
:1030D00008AB9C461722002430234146624404E09A
:1030E000013413550139202C01D00929F8D888461C
:1030F00030003900FFF724FB4346DA00A94B0500F6
:103100009B181A685B6808920993FFF701FB02009D
:103110000B0030003900FFF76CFA089A099BFFF7A3
:103120008CFA0A900B91FFF72FFB8246FFF7ECFA1F
:1031300002000B000A980B99FFF75BFA00229A4BEA
:103140000A900B91FFF7CEFA002800D1C0E00123CE
:103150009C46E2445046FFF7D7FA02000B0008985D
:103160000999FFF7AFFA002802D000239A460135EB
:103170004346002B6AD008AB17269C460895664448
:10318000554614E001235B4243440A2128009A4635
:10319000FEF7F4FF013430313719397028000A2165
:1031A000FEF7ECFF092D00D8D0E0D0460500202C1A
:1031B000E8D10EAB98460323249A1340012B00D18B
:1031C00096E02023249A01930392239A4346029285
:1031D0001EE0249B58460493239B0096019703937B
:1031E00043460C9A029307994B46FFF7FDFC17B034
:1031F000F0BCBB46B246A946A046F0BD249B5B0787
:103200000ED40322694B24990192039123990291D0
:10321000009358464B460C9A0799FFF7A9FBE6E73F
:103220000422634BEFE73B00320000200021FFF750
:10323000E0F9012306000F000D9344E7249B03935C
:10324000239B0293042301935A4BE1E72800FFF7E5
:103250005FFA02000B0030003900FFF7CAF9524B49
:10326000002206000F00FFF727FA0EAB9846002851
:103270000AD10022300039004B4BFFF733FA002807
:1032800002D1EB0700D50135202C94D008AA944632
:103290001723280063440A2101341E19FEF746FF54
:1032A0003031280031700A21FEF740FF051EEBD1B6
:1032B0000323249A1340012B1BD0202C00D180E73C
:1032C0000D9B002B35D02D224146631C0A5579E712
:1032D00000220A980B99344BFFF7EEF9002800D032
:1032E00046E75346002B51D101239C46E2443FE779
:1032F0002024239B002BE0D00D9B002B03D1249A8C
:103300000C33134202D0239B013B2393239BA34204
:10331000D3D908AB9C46172230236244202C00D11D
:103320004FE72399013413558C42C6D0202CF8D195
:1033300047E7249B5B0724D4249A2300120700D478
:1033400040E72022414601330A553BE75746089D96
:10335000202C00D12DE7220030214046002F09D03B
:103360000132B154202A00D123E7D3431B191B1883
:10337000002BF5D10EAB98462E234146541C8B549E
:1033800082E72B224146631C0A551BE7DB0700D46A
:10339000EEE6A9E7FFFFEFFFFFFFEF7F65CDCD4131
:1033A00065CDCDC1287A00100000E03F2C780010D8
:1033B000307800103C780010249B0393239B0293E9
:1033C00003230193004B23E738780010F0B5DE4665
:1033D0004E4657464546E0B59FB01C00289B914697
:1033E0000993C94AC94B8B4608901A60002900D13D
:1033F00018E2002320789A46002800D11AE226001D
:103400001D005C460AE02A006F1C4B46089D210007
:10341000A8473D0001363078002870D02528F2D129
:1034200010239B46083B9A46043B9846023B0021EA
:103430009C46721C107816000300203BDBB2102B58
:1034400003D8B34F9B00FB589F460300303B092B2A
:1034500032D900230A932A2868D0002398462E28C0
:103460003ED00300683BDBB2122B1CD8A94A9B005C
:10347000D3589F46012301321943DBE763460132EB
:103480001943D7E7434601321943D3E75B4601327C
:103490001943CFE7534601321943CBE780235B0042
:1034A0007078194301360300253BDBB2532BAAD8B1
:1034B000994A9B00D3589F4600270300B800C019C3
:1034C00001364000C018337830381A00303A07000F
:1034D000092AF3D90A901800002398462E28C0D153
:1034E00080237078DB0019430300303B721C092BEA
:1034F00000D8A1E12A2800D1B2E11600B1E7A34625
:10350000AA462C00D14503D801235B424B449A467E
:103510004B46524659460020089DA84720001FB040
:10352000F0BCBB46B246A946A046F0BD099B40CBC5
:103530000A96002E03DB50780993561C8DE7283835
:10354000014370420A9009935078561C85E7782809
:1035500000D1DFE1582800D14CE26F2800D14FE3C1
:10356000622801D100F030FC10230A009A430B922C
:10357000692801D000F0A9FC0A230C934B0500D563
:10358000D0E10B9A802311009B0019408B461A4210
:1035900000D0A1E2802311005B0019408A461A4244
:1035A00000D0B6E313005B0600D5EDE213000999E5
:1035B0001B0601D400F076FC08C91BB2D8171A18F4
:1035C000424092B209919346DA0F1292002B09D130
:1035D000802310220B99DB000B4091430B91002BB1
:1035E00000D0E4E20B9A6123920600D541230EA994
:1035F0001F228C46DBB262440A3B5F461395A3460A
:1036000055460C9CB2460D9316000AE03033DBB2EF
:1036100001357355A74200D2EDE2202D00D1EAE238
:10362000070021003800FEF7A9FDCBB20929EDD92A
:103630000D9A94466344DBB2EAE780239B007078DE
:10364000194301362FE77078682800D1CDE1802337
:103650000136194327E770786C2800D1BFE1802339
:103660005B00194301361EE7462800D19BE1072283
:10367000099B0491073393430A9A19000392424627
:1036800002920CC908980092019309912A004B46B6
:103690002100FFF7CFFC01360500BCE62A006F1CB5
:1036A0004B46089D21002520A84701363D00B2E683
:1036B0008B0700D4ADE1099B2A009A466B1C984603
:1036C000534601CB21009A46089F4B46C0B2B847EB
:1036D0000A9B9C466544012B00D886E2089B47461E
:1036E000B04626004C4699463A0023000137310087
:1036F0002020C847AF42F7D1A14653463400464682
:103700000993013687E6C046CD33001078280020A3
:103710004478001088780010D4780010099B04CBFE
:103720009B4643460992002B00D1C6E013789C4685
:10373000002B00D1BDE34346013B099A0133D01869
:103740000A9F130001E0834203D05A780133002A14
:10375000F9D1099A0A979B1A0B9380230A00DB0080
:103760001A400C92194204D00B9B434501D94346A1
:103770000B9302231A000A400D920B4200D187E1FD
:103780006046002800D168E10C9B002B00D10DE1C0
:10379000A844C246099B57465B1B9846089BB24605
:1037A0002A0026004C46994609E023003100551CAA
:1037B000C8474346585D002800D126E12A009742B9
:1037C000F3D1A1463D00340056460D9B002B00D09E
:1037D00043E15B46013609931DE6099B1A0008CABE
:1037E0009246002B48D0212211438B460EA88446D6
:1037F0001F216144099500220F27A4460D0002E015
:10380000202A0CD00B003C001C4020003730092C33
:1038100000D807380132A85419090F2BF0D8644694
:10382000099D32E0DC4B2078089300239A4600285B
:1038300000D0E4E5002465E6434606000A9F9800B0
:10384000C01801324000801916780300300030386B
:10385000303B0928F3D93000984616000A9700E655
:10386000099B023604CB9046D2434046D217104003
:10387000804609933078F4E5102208009043113215
:103880001043834600224905B0D55B4606930823C2
:10389000059343460493102303930023029316AB2E
:1038A000019200932A004B4621000898FFF7AEF8DA
:1038B0005346050001360993ADE513789C46002B6D
:1038C00000D1F7E202235B4237E7202302009A434C
:1038D000472A04D180231B0119430223984345281A
:1038E00001D1202319430722099B049107339343F5
:1038F0000A9A19000392424602920CC90898009253
:10390000019309912A004B462100FFF76DF901361A
:10391000050080E510230C930C230A009A430B92B8
:103920004B0503D501230B9A9A430B92692800D1CA
:1039300027E6642800D124E60B9A802311009B001F
:1039400019408B461A4200D066E1802311005B00CB
:1039500019408A461A4200D039E213005B0600D5AE
:103960003CE113001B0600D4A6E2099B04CB120421
:10397000120C934609935B46002B00D09AE10B9AF8
:103980001033110099430B91520500D492E10023AA
:103990009A460B9B06930A9B0593434604930C9B04
:1039A000039300230CE12023194360E6099B0A9A44
:1039B0005B1B98464B4691461F00B2462600089C6A
:1039C0002A003B003100A04743460135585D0028DE
:1039D000F6D14A463400B94656460A92F5E6C02367
:1039E0009B00B078194302365DE5C023B0781943D7
:1039F000023658E50C230A009A4314331A43103B4D
:103A00000B920C934B058DD496E7A1463400564695
:103A1000DBE60A9A012A00D853E26B1E9F18089B26
:103A2000B04626004C4699462A0023000135310055
:103A30002020C847BD42F7D1A14634004646099B25
:103A40003A0001CB210098467D1C4B46089FC0B22E
:103A5000B847434601360993DDE40B9B0A9AA84612
:103A60009A4200D8B5E694466544ED1A089B47464D
:103A7000B04626004C4699463A00230001373100F3
:103A80002020C847AF42F7D1A14634004646A0E601
:103A90000B9A0A99531C914200D814E24B199B1AB5
:103AA0001F00089BB24626004C4699462A00230078
:103AB000013531002020C847BD42F7D10A9BA146FD
:103AC00001330B93099B34001B7856469C46604695
:103AD000002800D058E67CE60722099B0733934371
:103AE000013294469C4462465F6809921A68FB174B
:103AF0001093119310981199030053400E930B00EB
:103B00007B400F9394460E9A0F9B121A8B410E9294
:103B10000F93FB0F6246129300233A439B463DD01E
:103B20000B9A6123920600D541230022DBB20EA935
:103B30000A3B8C4692460D9343461F3262441395CE
:103B4000159655460E9E0F9FA24690460C9C1493C8
:103B50000CE03032D2B2434601355A55BB4500D154
:103B60008AE1202D00D18AE106000F002200002307
:103B700030003900FEF740FBD2B2092AE9D90D9B8B
:103B80009C466244D2B2E6E7FF23099904C9134078
:103B90001A00099117E5C0466D2900100B9A1033E1
:103BA000110099430B915205BAD500239A460B9BFD
:103BB00006930A9B0593434604930C9B0393129B25
:103BC00002935346019316AB2A00009321004B4603
:103BD0000898FEF71BFF013605001CE4FF22099B35
:103BE00002CB11408B460993C5E6534645460993DF
:103BF0000136FFF710FC56465C46AA46139DD6E7F1
:103C000008230C930B910B99642800D084E60B9B3E
:103C10005B0500D586E6B4E40722099B073393438E
:103C2000013294469C44624609921A685B6810000F
:103C30009B4613005A46134307D10B9A10331100C9
:103C400099430B91520500D5A1E60B9A6123920688
:103C500000D541230022DBB20EA90A3B8C469246D6
:103C60000D9343461F3262445F461295A346554664
:103C70000400B24690460C9E13930DE03032D2B24F
:103C8000434601355A550023BB4200D100E1202DA7
:103C900000D100E104000F003200002320003900B1
:103CA000FEF7AAFAD2B2092AE8D90D9B9C466244D3
:103CB000D2B2E5E70B9A6123920600D54123DBB22D
:103CC0000EA90A3B1F228C460D93230062445C46DA
:103CD0001295170055469B46B2460C9E08E03033BD
:103CE000DBB201357B55B4420ED3202D0CD004003D
:103CF00031002000FEF742FACBB20929EFD90D9A24
:103D000094466344DBB2ECE756465C46AA46129DF5
:103D10003FE6099B1A0008CAD91713925A184A405D
:103D20009246DA0F1292002B08D1802310220B99B1
:103D3000DB000B4091430B91002B2BD10B9A61239D
:103D4000920600D541230EAA1F279446DBB20A3BF8
:103D50000D9567445D460993A3465446B2460C9EB2
:103D600008E03033DBB201357B55B4420ED3202D51
:103D70000CD0040031002000FEF700FACBB2092974
:103D8000EFD9099A94466344DBB2ECE756465C46A9
:103D9000AB460D9D0B9B2A0006930A9B21000593C1
:103DA000434604930C9B08980393129B013602939D
:103DB0005B46019316AB00934B46FEF727FE139B21
:103DC00005000993FFF727FB02230C931AE7099BD1
:103DD00004CB92461293002A08D1802310220B991B
:103DE000DB000B4091430B91002B2BD10B9A6123ED
:103DF000920600D541230EAA1F279446DBB20A3B48
:103E00000D9567445D460993A3465446B2460C9E01
:103E100008E03033DBB201357B55B4420ED3202DA0
:103E20000CD0040031002000FEF7A8F9CBB209291C
:103E3000EFD9099A94466344DBB2ECE756465C46F8
:103E4000AB460D9D0B9B2A0006930A9B2100059310
:103E5000434604930C9B08980393002302935B460C
:103E6000019316AB00934B46FEF7D0FD129B050065
:103E700009930136FFF7CFFAB44200D871E6149BDC
:103E800054460E960F97AA469846159E139D8EE6A9
:103E9000A64200D8FBE6139B56469846AA465C46C7
:103EA000129D76E508C9D8171A1842400991FFF704
:103EB0008AFB00230B9350E4099B04CB93460993A0
:103EC00059E52F00BBE50B9301E6063B0C939AE600
:103ED0000EB4012210B585B007AC08CC01000094E7
:103EE000524204480394FFF771FA05B010BC08BCB5
:103EF00003B018476529001010B5094A030014687B
:103F000084B0002C08D0012200910648524203A937
:103F1000A047012004B010BD00F086F90020F9E7A9
:103F200078280020D92B001000BEFDE7094A0300C5
:103F30001068002805D00849C3188B4207D81360C1
:103F4000704706480449C31810608B42F7D9012016
:103F50004042F5E77424002000000420E0290020FE
:103F600010B5FFF7E1FFC04670B5FEF707F8074D43
:103F7000074EB54209D20024013E761BB60808CD93
:103F8000984723000134B342F9D170BD6C7500101D
:103F900074750010030010B5080011001B689847E5
:103FA00010BDC046F0B546464F46D646C0B5437D27
:103FB00080460E001700002B46D0002A3FDD4B1E26
:103FC0009946244B0125002400209A460DE04B46DB
:103FD0001B5D0D3B5A425341325DDBB20A2A0BD0C6
:103FE0002B00013401359F421ADD002CEFD14346EE
:103FF000325D1B7D0A2AF3D1002BF1D1A04204DAF5
:104000004346211A1B6830189847434650461B68A0
:1040100002219847013428002B0001359F42E4DC3F
:10402000874204DD4346391A1B6830189847F61951
:10403000013E33780D3B5A42534142461375E0BC72
:10404000BA46B146A846F0BD036811003000984753
:10405000F5E7C046787A0010F0B5DE4657464E4682
:104060004546E0B585B017001C0006000D00FDF7C1
:1040700081FD0023314A12184B41002B59DB304996
:1040800008008A4603F024FA01906B1C03D130002B
:1040900003F084F80500002C26D12A4B98462A4BC1
:1040A0001C68002C15D0002F21D1284F02E0246974
:1040B000002C0ED02368002BF9D03B68002B01D0D8
:1040C000A342F4D120002A003100C0472469002C0B
:1040D000F0D1019B002B28D1280005B0F0BCBB46D5
:1040E000B246A946A046F0BD194B9846D7E7174BF4
:1040F000994602ABDF1D0A239B4602E02469002C8F
:10410000E7D02368002BF9D04B461B68002B01D069
:10411000A342F3D12A0031002000C0475B460122B0
:10412000390020003B70C047E8E7504603F0A0F993
:10413000D2E70122074B5242A1E7C04640420F009E
:1041400008190020953F00106824002070240020EA
:10415000A53F0010FFFFFF7F0A4A1368002B05D11F
:104160000CE01A001B691032002B07D09842F8D1DE
:10417000002902D103691360016170470029FCD056
:104180001060FAE76824002010B500F08BFA10BD2B
:10419000F0B5CE46474680B583B06B460600DD1DC0
:1041A0002870FDF7E7FC00231A4A12184B41002B38
:1041B0002BDB19490800884603F08AF9174B814622
:1041C0001C68002C14D0164F02E02469002C0FD07C
:1041D0002368002BF9D03B68002B01D0A342F4D117
:1041E000200001222900FFF7DDFE2469002CEFD119
:1041F0004B46002B05D1300003B0C0BCB946B046D9
:10420000F0BD404603F034F9F5E70122054B524278
:10421000CFE7C04640420F00081900206824002064
:1042200070240020FFFFFF7F70B5040002F0B6FF8E
:1042300001230100050001222000FFF70DFF084BBC
:104240001C68002C06D06368002B05D098472469B1
:10425000002CF8D1280070BD2469002CF3D1F9E7B7
:10426000682400207047C0460022014B1A70704736
:10427000DA2900204B790020FF2B0BD18B79002B02
:1042800008D1CB79012B05D1082A03D98A78024BB2
:1042900009301A707047C046DA29002001207047A3
:1042A00010B5012909D115495379107909781B02F4
:1042B00003430020994202D010BD0120FCE753784F
:1042C000012B08D0022BF7D1002064220021FDF73A
:1042D0009FFD0120F0E7D37891781B021943DB059D
:1042E00007D54A0A100001231A407E331940FDF712
:1042F00015FE01204A0A4042F5E7C046DA290020AF
:10430000004870479C7A001070B505001400012029
:10431000012909D153780020012B05D16379127945
:104320001B021343072B00D070BD21002800024A56
:104330009F3301F04FFAF7E7C07A001001230370B2
:10434000004870477C7A001048780B788A78000221
:104350001843120410439622CB7810B51B06034372
:10436000D200934200D010BD002201201100404233
:10437000FDF7D4FD024B1860024B19607047C04630
:10438000082400200C24002010B5024B1878FCF7FC
:10439000EDFC10BDDB290020154B70B51A68002A12
:1043A00022D0EFF3108172B610680028FCD0BFF362
:1043B0005F8F00220F48596002701B68BFF35F8F48
:1043C0001A6081F31088002400250B4E3078FCF72A
:1043D000C1FC002804D1002400252900200070BD64
:1043E0003078FCF7C3FCF8E7FA240025A400ECE7DA
:1043F00084280020DC290020DB29002070B504007F
:1044000000200E0001F008FB002835D0002001F04C
:104410001BFB002830D0FDF7ADFB0023184A121813
:104420004B41002B24DB174D280003F051F80028E6
:1044300022D0002001F0F0FA00280BD10120002149
:104440000324404200F0F8FC6442280003F010F816
:10445000200070BD002001F0F7FA0028EED0210006
:104460003200002001F0FCFA041EEED1033CECE720
:104470000122054B5242D6E703246442E8E7C046D6
:1044800040420F00B4290020FFFFFF7F10B5FDF769
:1044900071FB00230E4A12184B41002B13DB0D4C0D
:1044A000200003F015F800280CD001200021404224
:1044B00000F0C2FC002001F01FFB0028F5D1200015
:1044C00002F0D6FF10BD0122034B5242E7E7C0467F
:1044D00040420F00B4290020FFFFFF7FF8B5DE4601
:1044E000574680B505000C00FDF744FB0023364A13
:1044F00012184B41002B5ADB344908008A4602F05F
:10450000E7FF002803D1C0BCBB46B246F8BD00207F
:1045100001F082FA00284ED00026002C43DD2C4BFF
:104520009B4614E0A919002001F022FB070001209E
:104530000021404200F080FC002001F0DDFAFDF790
:1045400019FB234BF61918605960B4422BDD00208B
:1045500001F030FBA71B0200B84200DD3A00002A40
:10456000E0D101200021404200F066FC002001F073
:10457000C3FA002001F050FA002814D0002001F006
:1045800019FB0028E1D1FDF7F5FA5B460F001A6828
:104590005B68002184460F4812184B419F4202D8A5
:1045A000D3D19445D1D9504602F062FFABE7012246
:1045B000094B5242A0E700200021054B18605960CA
:1045C000504602F055FF9EE740420F00B4290020FC
:1045D000901A002020A10700FFFFFF7F30B52A4C72
:1045E00085B00021200002F063FF00281CD1274B7A
:1045F0001A68002A16D0EFF3108172B610680028EE
:10460000FCD0BFF35F8F01242148596002781B68FA
:10461000D2B20470BFF35F8F0020186081F310885E
:10462000002A17D005B030BD01200021404200F023
:1046300003FC002001F008FA0500200002F018FF3A
:10464000002DEFD0134B1B68002BEBD0124A1068E3
:104650009847E7E7FDF77CF80400FDF78BFAFA22AC
:104660000023920012184B41002B09DB012102911B
:1046700000210191094920000091FDF76DF8D1E773
:104680000122074B5242F1E7B42900208428002080
:10469000DC290020082400200C240020994300106D
:1046A000FFFFFF7FD02310B51B0684B01C68FDF709
:1046B0004FF8FDF74BF9A04202D0002004B010BD26
:1046C000284B1B7801F078FD27480368002B41D068
:1046D0000120FCF7C3FDFF23244C2549207018401E
:1046E000FCF762FB20780121FCF722FB0520FCF798
:1046F00045FB002821D1082200211E48FEF726F99B
:10470000FDF726F80400FDF735FAFA22002392009F
:1047100012184B41002B20DB012102910021019155
:10472000154920000091FDF717F80028C5DB134854
:104730000121FFF711FD0120C0E70120FCF7C8FAB5
:1047400001000C48FCF7F0FD002205200C49FCF7A5
:1047500055FBECE7FCF7CAFDBAE70122094B5242D0
:10476000DAE7C046987E0010B4290020DB2900203B
:10477000DD4500108428002099430010801000209F
:1047800089430010FFFFFF7F00487047087C00103E
:1047900000487047B47B001070B5040017480378D8
:1047A000002B21D0002C06D1C1241548154BA400A4
:1047B0004380048070BD052C1DD8134B1048A40005
:1047C000E558811C002304E001330A800231132BD9
:1047D0000ED0EA5CDCB2002AF6D1C0230134E4B288
:1047E00064009B001C43E4E7112100F017F8D9E7AF
:1047F000CA24A400DDE70020DCE7C046C42900206D
:1048000040240020090400001C7C001010B5024860
:1048100000F0D8F810BDC046A428002030B54B1ECB
:10482000012900D1A7E0664A11780D112C0030341F
:104830009F2900D9A2E00470012B00D1BEE00F2116
:10484000147821400C003034092900DD98E04470D0
:10485000022B00D1B2E054782511290030319F2C71
:1048600000D990E08170032B00D1A7E00F212140F7
:104870000C003034092900DD87E0C470042B00D11E
:104880009CE094782511290030319F2C00D97FE0DD
:104890000171052B00D191E00F2121400C00303433
:1048A000092900DD76E04471062B00D186E0D4783A
:1048B0002511290030319F2C00D96EE08171072B22
:1048C00000D17BE00F2121400C003034092966DC47
:1048D000C471082B00D171E0147925112900303101
:1048E0009F2C5FD80172092B68D00F2121400C004A
:1048F0003034092958DC44720A2B5FD054792511D1
:10490000290030319F2C52D881720B2B56D00F21A9
:1049100021400C00303409294BDCC4720C2B4DD0E3
:1049200094792511290030319F2C00D9073101736A
:104930000D2B43D00F2121400C003034092901DD1B
:1049400037310C0044730E2B38D0D1790C11220072
:1049500030329F2900D9073282730F2B2ED00F22BD
:104960000A4011003731092A01DC30321100C173CD
:10497000102B23D010300023037030BD07345AE7CA
:1049800037310C0063E707316CE737310C0074E70F
:1049900007317DE737310C0085E707318EE7373186
:1049A0000C0095E707319DE737310C00A3E707318D
:1049B000AAE737310C00C4720C2BB1D1C018DAE76A
:1049C000A428002030B5002589B004000922002168
:1049D00001A80095FDF7BAFF0922002105A804955A
:1049E000FDF7B4FF4B236A466846137004A90D22F5
:1049F00002F036FD1521082220006944FDF7ACFFC6
:104A000009B030BDF8B500F03DF90C23184DFF2278
:104A1000AB6705201749FCF7F1F9174C402200213C
:104A20002000FDF793FF4027002301262121134A90
:104A300066702783A260136063545F3161844539D7
:104A400063540F4A0F496360E2602787A1620B60DD
:104A50006362E26202F014FD80239B052E64EB6426
:104A60009023094AEA508022084B5202DA64F8BDCA
:104A700000001150F9040020782400208400105018
:104A8000000110508000105010D001000020115083
:104A900010B501210520FCF74BF910BD10B500221F
:104AA0000021024800F00EF910BDC04698240020F5
:104AB000044B1970002904D080219023024A8902F6
:104AC000D1507047D6290020002011500B785B068A
:104AD00002D14B78052B00D070478A78014B1A60C1
:104AE000FAE7C04600001150F0B5C64600B54B7954
:104AF0000C791B0288782343CC787F21A4070140DE
:104B0000C509A20F4F001400324E7A195201B21893
:104B1000907001206840507000205B055B0DD070E4
:104B20001383D4768046CA00012D33D02A488446A8
:104B3000880162448446B444604682604046106006
:104B4000002933D0254AC90090466246414451604D
:104B50003F223F339343022C00D15B0020487A1957
:104B600001685201B218D1601E4ACB18036051404F
:104B70005340802288465201934228D84346A406D7
:104B80001C4380237F197F011B06F6191C437368A1
:104B90001C6011E014488446880162448446B44491
:104BA0006046826240461060002909D100236D01F1
:104BB000761973600D4BF360012080BCB846F0BDE0
:104BC000084AC9009046624641445162C0E7FDF779
:104BD000CFF9D3E77824002084001050040010504F
:104BE000802800200000105080001050000110505C
:104BF00010B502F045FC10BD10B57F200C00204020
:104C00004000E409110000191A00034B4001C018CC
:104C100000F058F8012010BD782400207F221300F6
:104C200010B50B400A420BD0C90980225800401829
:104C30000649400140181201002102F069FC10BD34
:104C400002220348C909521A8266EEE7782400203E
:104C5000002011507F22100010B508400A4200D1F8
:104C600010BD0023C909400040180449400108183C
:104C700000220349C37002F04BFCF1E778240020C6
:104C8000FFF7FFFF80220A4B520410B51A60094B50
:104C900009491A6010000B689843FBD1802200215B
:104CA00052010648FDF752FE0922054B5A6710BD16
:104CB00000E0004000F0004008C00040000010503C
:104CC0000000115070B5837E04000D001600002B0B
:104CD00017D10023E38201332000A682A376256149
:104CE00002F01EFC002804D080219023084A89028B
:104CF000D150200002F0FCFB002805D001232377CF
:104D000070BD02F0FDFBE4E7200002F0E9FBF7E7ED
:104D1000002011507047C0467047C04600207047C1
:104D2000002070477047C0467047C0467047C04675
:104D30007047C046024B5878431E9841C0B2704736
:104D4000181F0020024B18784007C00F7047C0465C
:104D5000181F0020F8B54746CE4680B52B4F804639
:104D60003B780120FF2B03D0C0BCB946B046F8BD4C
:104D7000002154222648FDF7E9FD0022254C264B50
:104D800020001A70FCF7B2FA244B1C60244C20005F
:104D90001430FCF7B9FA200001F0DCFD214B224D64
:104DA0001C60224B002B04D02800FFF7C7FA204BD1
:104DB000186020490024002389462A781C4E10E000
:104DC0003268630194466344002B12D05B68002B69
:104DD0000FD098472A780134E4B2511C2300A14235
:104DE00009DBA242ECD89B1A5B014B445B68002BA9
:104DF000EFD10020B8E7434640463B70FFF702FE84
:104E00004046FFF745FE0120AEE7C046B410002043
:104E1000181F0020D01E0020D72900206C1F002062
:104E200098100020701F0020D52900203D4300105D
:104E3000EC1B0020387D0010F0B5DE4657464E468C
:104E40004546E0B5C44B8BB01B78FF2B00D12EE15B
:104E5000C24BC34D9A4607AC2E687269EFF31081BE
:104E600072B61368002BFCD0BFF35F8FB1613000C6
:104E7000210001F0B1FB7269B369BFF35F8F0021BC
:104E8000116083F31088002800D110E16378082BAB
:104E9000E2D852469B00D3589F466368002BDBD074
:104EA000A0689847D8E77F232179AE4E0B40580081
:104EB000CA093618B6183200012730321079B843C3
:104EC000107110790337B8431071002B00D1F7E04F
:104ED000A54A337D1278934200D3E5E0A34A5B01F3
:104EE0001268D318002B00D1E1E09E696279207826
:104EF000A368B047B0E79E4A1378002B00D1D6E0F4
:104F00001378013BDBB213701378002BA4D101227C
:104F1000944B01211B7893481343924A914E13708E
:104F20003423D25C8A43C254C25C04208243F254CC
:104F30000133F25C8A43F254F25C8243F2542378E8
:104F400000209B4600F0AEFC602223791A40602AC4
:104F50000DD0402A00D1BEE0DB06DB0E012B00D1D4
:104F60000EE1022B00D1D0E0002B00D1BFE0207871
:104F70000021FFF753FE80212078FFF74FFE6BE7FB
:104F8000784E3378DB0700D466E7FFF7D1FE63E79E
:104F9000744BDB78DB0700D45EE76068FFF7BCFE8C
:104FA0005AE7704E3378DB0700D455E730780007B6
:104FB000C00FFFF7BBFE4FE76E496B4E23788B4661
:104FC0006A499846894631003278002346460027D0
:104FD000884611E04A4612687B0194466344002BE0
:104FE0006CD0DB683000984743461A780137FFB22F
:104FF000511C3B008F4241DC9742EBD39B1A5B0173
:105000005B44EEE75B49584E23788B4657499846F8
:10501000894631003278002346460027884611E051
:105020004A4612687B0194466344002B21D0DB681A
:105030003000984743461A780137FFB2511C3B00B5
:105040008F4205DCBA42EBD89B1A5B015B44EEE76A
:10505000444E542200213000FDF778FC1022FF213D
:10506000301DFDF773FC30002022FF211430FDF7C6
:105070006DFC00F00DFCFFF757FEEDE6394E5422B3
:1050800000213000FDF762FC1022FF21301DFDF7EA
:105090005DFC30002022FF211430FDF757FC00F0AA
:1050A000F7FB2379B370D7E6501C98420EDA0BB0A9
:1050B000F0BCBB46B246A946A046F0BD294EEEE77D
:1050C00062792078A36800F001FCC5E69B1A294AA2
:1050D0005B01D31809E7284800F0E4FB012158469A
:1050E00008AAFFF711F9002800D0B5E63FE7202A0B
:1050F00000D14EE1002A00D039E76379092B00D9AD
:1051000035E71E4A9B00D3589F467023217A0B42F5
:1051100000D02CE77F26CB0998460E40114B760035
:105120009B1943441F7D104B1B789F425ED3581C34
:10513000B84200DA49E1FF1A0E4B7F01DF19002A5D
:1051400000D146E1786900F0ADFB012158467B694A
:1051500008AA9847C7E7C046B4100020907C00100A
:10516000701F0020181F0020D5290020EC1B0020F4
:10517000D7290020387D001009430010B47C0010AE
:10518000237A0F2B00D9F2E6D64A9446D64A6344D6
:105190001B791278934234D3511C994200DAE6E627
:1051A000D24E9B1A5B01F618706900F07BFB01215F
:1051B0005846736908AA9847002800D04CE6602238
:1051C000160023791E401A4200D0D0E663790A3BCC
:1051D000012B00D9CBE600F065FB63790A2B00D1E7
:1051E00050E1584608A900F0DDFA35E6C04B7F01D2
:1051F0001B68DF19002A00D1EBE0002F00D1B6E6D2
:10520000A0E7BB4A5B011668F618002E00D1AEE697
:10521000CAE7B44BA7795B789F42E2D0B14B5B7889
:10522000002B00D06AE1AF4B5F70002F00D155E139
:10523000781EC0B2FFF7ACFA002800D14AE14378EB
:105240000493022B00D045E10121C2799311521140
:105250000B400A4012015B011343A24A2F3112781E
:105260008A4313439F4A137009239946C37882786F
:105270001B021343C31802939D4B814498464F462B
:10528000029BBB4200D806E101227B7800920B2BE7
:1052900004D1FB7800933B78FF187B78042B00D077
:1052A00018E1029BB946DB1B9BB203938E4B1E7821
:1052B00000231F0001931BE0424612687B01D618B1
:1052C000002E00D106E149465846039A33699847B3
:1052D0000590082803D9039A824200D3DEE0824B6E
:1052E00001371E78FFB2731C01979F4200DDF1E089
:1052F000BE42E1D8019B9E1B7C4B76019C466644D6
:10530000E1E7784B06AA5B78023213705846012316
:1053100008A900F05FFA9FE5E088030AC0B20F2BEE
:1053200000D924E673499A008A58974608A800F0E5
:10533000BFFA5846A179FFF7B1FB0222694B1B78EF
:105340001343684A137087E5E388012B00D00EE60B
:105350000822644B1B789343624A137041E7022092
:10536000604B197806AB9A1C8B068908DB0F01404D
:105370000B4313805846022308A900F02BFA6BE573
:10538000E388012B00D0F2E50822564B1B7813432B
:10539000E2E7237A0F2B00D9E9E5524A9446524AB4
:1053A00063441B791278934227D2514A5B011668F5
:1053B000F618002E00D1DAE5706900F073FA0121C9
:1053C0005846736908AA98478DE60027002A00D03E
:1053D000CDE50222637999469343012B16D04B46C3
:1053E000002B00D0C3E53F4B06AA9B194344303342
:1053F0001B7902329B07DB0FBBE7511C994200DA95
:10540000B5E53A4E9B1A5B01F618D5E7E388002B09
:1054100012D14B46012B24D0374B1878FFF7FEFBF7
:105420000221304B9B19434430331A790A4301213E
:105430001A711A790A431A71002F00D10CE57869A4
:1054400000F030FA7B6908AA0121584698470020ED
:1054500000F028FA3523234AD35CDB0700D5FBE4B0
:10546000BFE6254B1878FFF7F5FB02211D4B9B1972
:10547000434430331A798A4349461A711A798A4368
:105480001A71D9E706AB9A1C5846012308A9167071
:1054900000F0A0F9E0E4FFF745FCA2E63B004F4630
:1054A0009946009B012B00D189E0009B002B75D011
:1054B00000234E46B97805E016710133009ADBB23D
:1054C00093426AD207485A188446D2B2624410798D
:1054D000FF28F1D00023034A537048E5FFF724FC6E
:1054E0007FE6C046181F0020D5290020387D001017
:1054F000EC1B0020DC7C0010B4100020002158467A
:10550000FFF7D6FA5846FFF773FB454B454E9B789D
:1055100045490093894600233100327888461E00B1
:1055200011E04A461268730194466344002B22D06E
:10553000DB685846984743461A780136F6B2511C44
:1055400033008E4207DCB242EBD89B1A374A5B012C
:1055500094466344ECE7542200213148FDF7F6F904
:105560002F4B1022FF21181DFDF7F0F92022FF21FB
:105570002F48FDF7EBF92A4B009A9A7053E6FEF795
:10558000BFFE021E00D1F2E4D37891781B020B43D8
:10559000584608A900F01EF9A5E5B146059E4B4600
:1055A00032003900224800F08DFEB4461D4B019AAE
:1055B0001B7867440133934200DB61E68AE71D4BA9
:1055C00032699A4200D073E7049B009370E7FFF7BB
:1055D000A5FB021E00D1CAE45846137808A900F0C2
:1055E000F9F880E52189FFF7D7F8021EF4D1BEE46F
:1055F000022B0FD0FFF794FB021EC5D1B7E4FFF7D3
:10560000C3F8021E00D1B2E41223584608A900F0E4
:10561000E1F868E5FFF7BCF8021EB5D1A7E4C04683
:10562000181F0020D5290020EC1B0020387D001019
:105630002C1F0020B95C0010F8B557464E46DE46D8
:1056400045460C00E0B516001F00002A3CD0702330
:1056500098461E4B00259B461D4B9A461AE05B461A
:105660001B78200099465346997800F0EFFD0028FA
:105670001CD021004846FFF737FA002816D0A3783F
:10568000DA09012A19D00A9A013513702378E4182F
:10569000B54219DA6378052B08D1E3789B079B0F95
:1056A000BB4203D14246A3781A42D8D00020F0BCB6
:1056B000BB46B246A946A046F8BD0B9A0135137009
:1056C0002378E418B542E5DB0120F0E7B4100020B0
:1056D000181F0020702270B58B780C001A4201D080
:1056E000002070BD064B20001D78064B997800F015
:1056F000ADFD0028F4D021002800FFF7F5F9F0E710
:10570000B4100020181F0020074B080019687F23E1
:1057100010B50340C0095B0034301818034B18184B
:1057200000F050FD10BDC0466C1F0020181F002067
:10573000074B080019687F2310B50340C0095B00C0
:1057400034301818034B181800F064FD10BDC04623
:105750006C1F0020181F00207F2070B508400F4CE0
:105760004000CD0924186419303425790020ED0754
:1057700000D570BD0126257909483543007825718B
:10578000FFF73AFA0028F4D10122237993432371D9
:105790002379033293432371EBE7C046181F00209F
:1057A000B410002070B50A4E0500300008220C002D
:1057B000FDF7D2F800237F21F3602278B360914295
:1057C0005B412800D90100220023FFF7C5FF70BD0F
:1057D000BC1E0020F8B5CE46474691462A4E80B5FD
:1057E0000822070030000D009846FDF7B5F84B463B
:1057F000B3600023F381EC79A97924020C43231CC4
:10580000444500D943469AB29046B381002C13D048
:10581000002A1FD04B46002B34D0131C402A1FD81F
:105820009BB2984633787F2B20D80021174A4346F5
:105830003800FFF791FF09E07F222B7838009A4269
:10584000644100230022E101FFF786FFC0BCB94696
:10585000B046F8BD33787F2B11D980210022E6E7CE
:1058600040239BB2984633787F2BDED9074C4246C3
:1058700049462000FDF770F880212200D7E700217B
:105880000022D4E70020E1E7BC1E0020D81E002043
:1058900010B5142200210248FDF758F810BDC0468B
:1058A000BC1E0020014B18617047C046BC1E002082
:1058B00010B5054C010008222000FDF74DF800232B
:1058C000A360E36010BDC046BC1E0020F8B5394C93
:1058D0001D0023780600DA09C9098A4210D0002089
:1058E000002D00D0F8BD21003000FFF7EFF823694C
:1058F000002B42D022000321300098470120F1E71D
:105900007F2B06D8A068002839D02A002A49FDF745
:1059100023F8A368E28959195219E38892B2E28107
:10592000A160934214D03F2D12D9A589A81A071C53
:1059300080B240282FD82378BFB27F2B2DD80021EA
:10594000AA4235D01C4A3B003000FFF705FFC9E7EB
:105950002369002B05D0220002213000984700283F
:105960000FD07F220021237830009A424941002342
:105970000022C901FFF7F0FEB4E70120B2E70020E2
:10598000B0E700213000FFF749F930008021FFF730
:1059900045F90120A6E74027CDE7AA4207D0064CEB
:1059A0003A002000FCF7D8FF80212200CBE78021BD
:1059B0000022C8E7BC1E0020D81E002070B50400DD
:1059C000FFF7B8F9002800D170BDFFF7BBF9002838
:1059D000FAD1E378002BF7D025001035280000F02D
:1059E000E5FD3F28F0D90020E178FFF78DFE002883
:1059F000EAD0280000F0DAFD3F2808D992239B0066
:105A0000E218E17840230020FFF7A6FEDCE7E1780A
:105A10000020FFF78DFED7E710B50400FFF78AF9E5
:105A2000002801D1002010BDFFF78CF90028F9D122
:105A3000B220800044430348001903790120184034
:105A4000F1E7C046F41B0020B2239B00584310B579
:105A5000024B1030C01800F08BFD10BDF41B00206D
:105A6000F0B5B226B60046433500C6461F4F204B60
:105A70001035040000B57D199A4200D91D4A28004E
:105A800092B200F0F9FD8046FFF754F9002803D1E7
:105A9000404680BCB846F0BDFFF754F90028F7D166
:105AA000B2239B005C433C19E378002BF0D0280024
:105AB00000F07CFD3F28EBD90020E178FFF724FEC1
:105AC0000028E5D0280000F071FD3F2809D9922375
:105AD0009B00F218E1784023BA180020FFF73CFE43
